:100000000C946A000C948D050C94BA050C94920023
:100010000C9492000C949C0B0C9492000C94920003
:100020000C9492000C94940A0C9492000C949200FC
:100030000C9492000C9492000C9492000C949200F8
:100040000C94E70B0C9492000C94E8000C94920032
:100050000C9492000C9492000C9492000C949200D8
:100060000C9492000C9492000000000024002700E1
:100070002A0000000000250028002B0000000000DE
:1000800023002600290004040404040404040202DA
:100090000202020203030303030301020408102007
:1000A0004080010204081020010204081020000012
:1000B0000007000201000003040600000000000029
:1000C00000006364696E6F70737578585B00D102CD
:1000D0000A0A030A11241FBECFEFD8E0DEBFCDBF4E
:1000E00012E0A0E0B1E0E4EAFCE302C005900D926A
:1000F000AE34B107D9F713E0AEE4B2E001C01D920F
:10010000A73AB107E1F710E0C2EDD0E004C02297B2
:10011000FE010E94361ECE3CD107C9F70E94ED06B3
:100120000C94451E0C940000FC0115821482089565
:10013000FC01158214820895FC0115821482089531
:10014000FC0180819181892B59F4662349F08481D7
:100150009581442311F4019701C00196958384830E
:1001600080819181892B59F0662349F4848195819E
:10017000442311F4019601C0019795838483608321
:10018000118282819381892B59F4442349F084811F
:100190009581662311F4019601C0019795838483AC
:1001A00082819381892B59F0442349F4848195817C
:1001B000662311F4019701C00196958384834283DD
:1001C00013820895FC01848195810895089508950E
:1001D0001F920F920FB60F9211242F933F934F93BC
:1001E0005F936F937F938F939F93AF93BF93EF939F
:1001F000FF934091C600E091CE02F091CF02CF0173
:10020000019660E870E00E94991D9C018091D002E7
:100210009091D1022817390739F0E25BFD4F4083F6
:100220003093CF022093CE02FF91EF91BF91AF9117
:100230009F918F917F916F915F914F913F912F91FE
:100240000F900FBE0F901F9018958F92AF92CF9284
:10025000DF92EF92FF920F931F93DF93CF93CDB76F
:10026000DEB7FC0184E091E0918380837383628335
:10027000558344833783268311870087F386E2867C
:10028000D586C486A68687868D85808B8E85818B54
:100290008F85828BCF91DF911F910F91FF90EF900F
:1002A000DF90CF90AF908F9008958F92AF92CF92C2
:1002B000DF92EF92FF920F931F93DF93CF93CDB70F
:1002C000DEB7FC0184E091E09183808373836283D5
:1002D000558344833783268311870087F386E2861C
:1002E000D586C486A68687868D85808B8E85818BF4
:1002F0008F85828BCF91DF911F910F91FF90EF90AF
:10030000DF90CF90AF908F9008955F926F927F9221
:100310008F929F92AF92BF92CF92DF92EF92FF9215
:100320000F931F93CF93DF93EC015A016B0181E48C
:10033000A81682E4B8068FE0C80680E0D80608F068
:1003400077C060E874E88EE190E0A60195010E9414
:10035000AC1D39014A0108946108710881089108AF
:100360009694879477946794A40193012F5F3F4FED
:100370004F4F5F4F74E0220F331F441F551F7A9574
:10038000D1F760E074E284EF90E00E94AC1DCA01F6
:10039000B9012FEF30E040E050E00E947A1DA60145
:1003A00095010E94AC1D8FEF90E0821B930B1816F5
:1003B00019061CF4522E509402C0522E539460E041
:1003C00079E08DE390E0A60195010E94AC1D2150DB
:1003D00030404040504056954795379527952F5FC0
:1003E0003F4F4F4F5F4F93E0220F331F441F551F66
:1003F0009A95D1F760E074E284EF90E00E94AC1D22
:10040000CA01B9012FEF30E040E050E00E947A1DB0
:10041000A60195010E94AC1D8FEF90E0821B930B0B
:100420001816190614F4209501C02F5F2515F0F455
:10043000E885F98581E090E00A8802C0880F991F5D
:100440000A94E2F7808360E079E08DE390E0A60112
:1004500095010E94AC1D21503040404050405695BF
:10046000479537952795822F232F05C0E885F98575
:100470001082862D272DEC81FD812083EE81FF8166
:100480008083EA85FB85208141E050E0CA010E842B
:1004900002C0880F991F0A94E2F7282B2083EA856F
:1004A000FB852081CA010F8402C0880F991F0A941E
:1004B000E2F7282B2083EA85FB858081088802C02B
:1004C000440F551F0A94E2F7842B8083DF91CF916C
:1004D0001F910F91FF90EF90DF90CF90BF90AF9062
:1004E0009F908F907F906F905F900895DC0112969F
:1004F000ED91FC911397E058FF4F819191918058B5
:100500009F4F20813181821B930B60E870E00E9435
:10051000991D0895CF93DF93DC011296ED91FC9124
:100520001397EF01CE57DF4F48815981E058FF4FB5
:1005300080819181E058F0408417950719F42FEFDE
:100540003FEF0CC0E40FF51F2081CA01019660E85F
:1005500070E00E94991D9983888330E0C901DF9182
:10056000CF910895DC011296ED91FC911397EE570F
:10057000FF4F80819181929382930895FC01A08521
:10058000B18521898C9190E0022E02C095958795C6
:100590000A94E2F780FFF6CF0484F585E02D6083AE
:1005A000089584E091E09093D3028093D2028EE488
:1005B00092E09093D5028093D40285EC90E09093E2
:1005C000D7028093D60284EC90E09093D902809376
:1005D000D80280EC90E09093DB028093DA0281EC09
:1005E00090E09093DD028093DC0286EC90E09093A3
:1005F000DF028093DE0284E08093E00283E0809358
:10060000E10287E08093E20285E08093E30281E0EB
:100610008093E40208950F931F93CF93DF938C018F
:10062000EB0109C02196D801ED91FC910190F08178
:10063000E02DC801099568816623A1F7DF91CF916C
:100640001F910F910895EF92FF920F931F93CF93F5
:10065000DF938C017B01EA010CC0D7016D917D0114
:10066000D801ED91FC910190F081E02DC801099530
:100670002197209791F7DF91CF911F910F91FF90D4
:10068000EF900895DC01ED91FC910190F081E02D57
:1006900009950895DC01ED91FC910190F081E02D28
:1006A00009950895DC01ED91FC910280F381E02D24
:1006B000099508950F931F938C01DC01ED91FC9136
:1006C0000190F081E02D6DE00995D801ED91FC914C
:1006D0000190F081E02DC8016AE009951F910F910A
:1006E00008950F931F938C01DC01ED91FC91019013
:1006F000F081E02D0995C8010E945A031F910F91C6
:1007000008950F931F938C010E945203C8010E9409
:100710005A031F910F9108950F931F938C01DC01D1
:10072000ED91FC910190F081E02D0995C8010E94A6
:100730005A031F910F9108952F923F924F925F920B
:100740006F927F928F929F92AF92BF92CF92DF92E1
:10075000EF92FF920F931F93DF93CF93CDB7DEB746
:10076000A0970FB6F894DEBF0FBECDBF1C016A0183
:100770007B01411551056105710549F4DC01ED91DD
:10078000FC910190F081E02D60E3099554C088242C
:1007900099245401422E55246624772401E010E068
:1007A0000C0F1D1F080D191DC701B601A3019201F1
:1007B0000E94AC1DF80160830894811C911CA11C4F
:1007C000B11CC701B601A30192010E94AC1DC90171
:1007D000DA016C017D01C114D104E104F104F1F6E8
:1007E00081E0E82EF12CEC0EFD1EE80CF91C3E0118
:1007F0000894611C711CD501C4010197A109B109BC
:100800006C01C818D90814C0F601EE0DFF1D6081F7
:100810006A3010F4605D01C0695CD101ED91FC911A
:100820000190F081E02DC10109950894E108F108DB
:100830006E147F0449F7A0960FB6F894DEBF0FBE82
:10084000CDBFCF91DF911F910F91FF90EF90DF907F
:10085000CF90BF90AF909F908F907F906F905F9060
:100860004F903F902F9008952AE00E949C03089596
:100870000F931F938C010E943404C8010E945A03F5
:100880001F910F910895AB0160E070E00E94340465
:1008900008950F931F938C01AB0160E070E00E94FC
:1008A0003404C8010E945A031F910F910895EF92DA
:1008B000FF920F931F93CF93DF93EC017A018B018B
:1008C00077FF0FC0E881F9810190F081E02D6DE2A2
:1008D000099510950095F094E094E11CF11C011D20
:1008E000111DCE01B801A7012AE00E949C03DF91EF
:1008F000CF911F910F91FF90EF9008950F931F9349
:100900008C010E945704C8010E945A031F910F9145
:100910000895AB01662757FD6095762F0E94570416
:1009200008950F931F938C01AB01662757FD6095C7
:10093000762F0E945704C8010E945A031F910F91FD
:100940000895DC012115310541F4ED91FC910190F0
:10095000F081E02D642F099508952A30310519F4AE
:100960000E94570408950E949C0308950F931F93BB
:100970008C010E94A104C8010E945A031F910F918B
:1009800008959F92AF92BF92CF92DF92EF92FF9223
:100990000F931F93CF93DF93EC017A018B01922E7B
:1009A000CB01BA0120E030E040E050E00E94AE12FE
:1009B000882364F4E881F9810190F081E02DCE0173
:1009C0006DE2099517FB109517F9109520E030E0BE
:1009D00040E05FE3AA240BC0CA01B90120E030E087
:1009E00040E251E40E94A2119B01AC01A394A9141E
:1009F00098F3C801B7010E947B105B016C010E9453
:100A0000D20E7B018C01CE01B801A7010E943404F3
:100A1000992029F0CE016AE071E00E945203C801DA
:100A2000B7010E9490139B01AC01C601B5010E9461
:100A30004A1020C020E030E040E251E40E94A810BB
:100A40007B018C010E943C135B016C01CC24B7FC40
:100A5000C094DC2CCE01B601A5010E945704C6014A
:100A6000B5010E94DE129B01AC01C801B7010E94D2
:100A70004A109A949920F1F6DF91CF911F910F912E
:100A8000FF90EF90DF90CF90BF90AF909F90089530
:100A900022E00E94C10408950F931F938C010E94CD
:100AA0004805C8010E945A031F910F910895823092
:100AB00000F5E82FF0E0EE0FFF1FEB51FD4F7183C3
:100AC0006083882319F08130A1F408C08091690007
:100AD0008C7F842B80936900E89A08958091690047
:100AE000440F551F440F551F837F842B809369004B
:100AF000E99A0895823080F4882319F0813021F436
:100B000002C0E89801C0E998E82FF0E0EE0FFF1F5F
:100B1000EB51FD4F1182108208951F920F920FB674
:100B20000F9211242F933F934F935F936F937F9373
:100B30008F939F93AF93BF93EF93FF938091E502C1
:100B40009091E602892B29F0E091E502F091E6020E
:100B50000995FF91EF91BF91AF919F918F917F91F7
:100B60006F915F914F913F912F910F900FBE0F901A
:100B70001F9018951F920F920FB60F9211242F936A
:100B80003F934F935F936F937F938F939F93AF9315
:100B9000BF93EF93FF938091E7029091E802892B36
:100BA00029F0E091E702F091E8020995FF91EF91B9
:100BB000BF91AF919F918F917F916F915F914F9175
:100BC0003F912F910F900FBE0F901F9018952F926D
:100BD0003F924F925F926F927F928F929F92AF92CD
:100BE000BF92CF92DF92EF92FF920F931F93DF930A
:100BF000CF93CDB7DEB73B014C0119012A016D89B6
:100C00007E898F89988D6A197B098C099D09621AE2
:100C1000730A840A950AA40193010E947A1DE218BE
:100C2000F30804091509A80197010E94CE1D2A0D99
:100C30003B1D4C1D5D1DB901CA01CF91DF911F9174
:100C40000F91FF90EF90DF90CF90BF90AF909F906B
:100C50008F907F906F905F904F903F902F9008956E
:100C6000089570E0382F20E0622B732BCB0108959C
:100C7000EF92FF920F931F937B018C016115710519
:100C80008105910529F420E030E040E050E00BC000
:100C90000E945116A80197010E94CE1DAC01CB0104
:100CA000DA019C01AD01B901CA011F910F91FF90BA
:100CB000EF900895EF92FF920F931F937B018C01A9
:100CC000621773078407950764F4261B370B480BDC
:100CD000590BCA01B9010E943806E60EF71E081F1B
:100CE000191FB701C8011F910F91FF90EF90089550
:100CF000009729F0BC0180E090E00E94561608950C
:100D000010925203109251038BEE92E0089583EEFD
:100D100096E06AE976E00E945F169093EA0280937B
:100D2000E902109252031092510310925003109254
:100D30004F03089582ED92E00E948A029C018FEF9A
:100D40002F3F3807B9F3C9010895CF93DF93C1E06E
:100D5000D0E02CC082ED92E00E948A02282F8A30D7
:100D600011F08D30B1F48091510390915203892B91
:100D700059F4E0914F03F0915003E551FD4F10827B
:100D8000D0935203C09351031092500310924F031B
:100D90000DC080914F0390915003FC01E551FD4F30
:100DA000208301969093500380934F0382ED92E04D
:100DB0000E947602882371F680915103909152032C
:100DC000DF91CF910895682F82ED92E00E94BE02DC
:100DD00080E090E00895F894FFCF2F923F924F92D9
:100DE0005F926F927F928F929F92AF92BF92CF92BB
:100DF000DF92EF92FF920F931F93DF93CF93CDB7C4
:100E0000DEB7A2970FB6F894DEBF0FBECDBF0E942B
:100E1000A00C0E94D30B0E9412090E94870682ED4B
:100E200092E040E051EE60E070E00E94850160E0F9
:100E300070E080E090E00E94200960E070E080E0D7
:100E400090E00E94820951986FE0E62EF12CEC0EA2
:100E5000FD1E53E0252E312C2C0E3D1E46E3442E64
:100E600041E0542E3DE2632E31E0732E2FE1822EBD
:100E700021E0922E99E2A92E91E0B92E85E0C82EAC
:100E8000D12CCC0EDD1E0E94A506892BE1F30E9419
:100E900080062DB73EB72A5030400FB6F8943EBFBB
:100EA0000FBE2DBFEDB7FEB73196ADB7BEB71296E8
:100EB0009C938E93119726E131E033832283F58250
:100EC000E48281E090E08C0F9D1F978386833186BA
:100ED00020860E94BF16ADB7BEB71A960FB6F8941B
:100EE000BEBF0FBEADBF8F85873509F067C0519A71
:100EF0002DB73EB72A5030400FB6F8943EBF0FBE14
:100F00002DBFEDB7FEB731968091E9029091EA02CC
:100F1000ADB7BEB712969C938E931197938282823F
:100F2000F582E48289819A81978386838B819C8173
:100F3000918780870E94AB1651982DB73EB7265FE8
:100F40003F4F0FB6F8943EBF0FBE2DBF0E94A506BF
:100F5000892BE1F30E94800600D000D000D0EDB7CD
:100F6000FEB73196ADB7BEB712969C938E9311978C
:100F7000B382A282D582C4820E94BF162DB73EB72B
:100F80002A5F3F4F0FB6F8943EBF0FBE2DBF8D8135
:100F90008134A1F469817A81882777FD8095982F23
:100FA0000E94DE120E9420096B817C81882777FDD8
:100FB0008095982F0E94DE120E9482098F858534C9
:100FC00079F5519A86E793E00E94E2008C0189E569
:100FD00093E00E94E200ADB7BEB718970FB6F89441
:100FE000BEBF0FBEADBFEDB7FEB731962091E9028F
:100FF0003091EA0212963C932E931197738262828B
:1010000015830483978386830E94AB1651982DB76E
:101010003EB7285F3F4F0FB6F8943EBF0FBE2DBFBF
:101020008F85833409F02FCF8889853409F02BCF41
:1010300086E793E00E949C0089E593E00E949C0073
:10104000519A8DB79EB708970FB6F8949EBF0FBE02
:101050008DBFEDB7FEB731968091E9029091EA021B
:10106000ADB7BEB712969C938E931197538242826E
:1010700089819A81958384838B819C8197838683E0
:101080000E94AB1651982DB73EB7285F3F4F0FB661
:10109000F8943EBF0FBE2DBFF6CE2EEF82309207E2
:1010A00014F482E09EEF9C0181E02F3F380714F09A
:1010B0002EEF31E0C90108950F931F938C01289AF8
:1010C0000E940209C8010E940D091F910F91089505
:1010D0000F931F938C0128980E94F908C8010E9461
:1010E0000D091F910F9108959C0181E02F3F380752
:1010F0001CF02EEF31E006C08EEF2230380734F0BE
:1011000037FD06C0C9010E946808089522E03EEF3D
:1011100088279927821B930B0E945C08089584B14D
:10112000816184B985B1816185B90E94D208089531
:10113000579A239A5F9A2B9A0E94D20808950F9388
:101140001F938C015F9A0E94F308C8010E9408094E
:101150001F910F9108950F931F938C015F980E9428
:10116000EA08C8010E9408091F910F9108959C0187
:1011700081E02F3F38071CF02EEF31E006C08EEFE4
:101180002230380734F037FD06C0C9010E94AB0891
:10119000089522E03EEF88279927821B930B0E9437
:1011A0009F08089580E293E09093870080938600E3
:1011B00082EF8093800089E0809381001092890003
:1011C0001092880010928B0010928A0084B1866081
:1011D00084B90895E0E8F0E080818F7B808380818E
:1011E000806880830895E0E8F0E08081806C8083EF
:1011F0000895E0E8F0E080818F7E808380818062C6
:1012000080830895E0E8F0E0808180638083089522
:101210009093890080938800089590938B00809329
:101220008A0008958AB1837C8AB9F894E8E6F0E0F0
:101230008081846080838CE380936D00789408952E
:10124000EF92FF920F931F937B018C0117FB109578
:1012500017F91095C801B70120E030E048EC52E4DE
:101260000E944E1218165CF40F2EF0E0EF2EF0E004
:10127000FF2EF8EC0F2FF2E41F2FF02D14C0C80141
:10128000B70120E030E048EC52EC0E94AE12882317
:1012900054F40F2EF0E0EF2EF0E0FF2EF8EC0F2FBD
:1012A000F2EC1F2FF02DC801B7010E943C13709380
:1012B000850360938403C801B70120E030E04DE06E
:1012C00054E40E94A81021E539E847E152E40E9465
:1012D000A2110E943C13882777FD8095982F0E94C9
:1012E000DE1220E030E044EF51E40E94A2110E949F
:1012F0003C1370938103609380031F910F91FF90C3
:10130000EF900895EF92FF920F931F937B018C0152
:1013100020E030E048EC52E40E944E1218165CF4D3
:101320000F2EF0E0EF2EF0E0FF2EF8EC0F2FF2E49E
:101330001F2FF02D14C0C801B70120E030E048ECA9
:1013400052EC0E94AE12882354F40F2EF0E0EF2EE0
:10135000F0E0FF2EF8EC0F2FF2EC1F2FF02DC8015C
:10136000B7010E943C137093680360936703C80140
:10137000B70120E030E04DE054E40E94A81021E5E0
:1013800039E847E152E40E94A2110E943C138827E9
:1013900077FD8095982F0E94DE1220E030E044EF28
:1013A00051E40E94A2110E943C1370936403609365
:1013B00063031F910F91FF90EF9008958130910585
:1013C00081F46F5F7F4FF1F489E593E00E9498000C
:1013D00086E793E00E9498008EE893E00E949800D0
:1013E0000895892B79F46F5F7F4F61F48EE893E065
:1013F0000E94E70086E793E00E94E70089E593E01A
:101400000E94E700089580E090E06FEF7FEF0E9478
:10141000DE09089581E090E06FEF7FEF0E94DE0922
:101420000895EF92FF920F931F938C0186E7E82EA9
:1014300083E0F82EC7010E94E200800F911F909375
:10144000830380938203C7014D970E94E200080F37
:10145000191F10936603009365031F910F91FF906E
:10146000EF9008950F931F9300E813E0109281030B
:1014700010928003C8010A970E949C001092640396
:1014800010926303C80187970E949C001092830307
:101490001092820310926603109265031F910F91C0
:1014A00008950F931F93F89485E08093B1001092F4
:1014B000B20081E08093700001E613E010926203B5
:1014C000109261031092640310926303C80108979D
:1014D0000E949C00109266031092650310926C03A8
:1014E00010926B03109256031092550310927F03D3
:1014F00010927E031092810310928003C8014596DA
:101500000E949C0010928303109282031092890320
:1015100010928803109273031092720310928D033D
:1015200078941F910F9108951F920F920FB60F920A
:1015300011240F931F932F933F934F935F936F93B8
:101540007F938F939F93AF93BF93EF93FF931092EB
:10155000B20080918D03813009F0D8C089E593E015
:101560000E94E20020915F0330916003821B930B85
:10157000909362038093610389E593E00E94E20007
:101580009093600380935F0386E793E00E94E200FC
:1015900020917C0330917D03821B930B90937F03FA
:1015A00080937E0386E793E00E94E20090937D03A0
:1015B00080937C03A0916303B091640380916103E5
:1015C00090916203A81BB90BB0936A03A0936903BF
:1015D000409180035091810380917E0390917F031D
:1015E000481B590B5093870340938603BD01660F38
:1015F000771F660F771F70935403609353038A011C
:10160000000F111F000F111F10937103009370033F
:1016100020916B0330916C032A1B3B0B30935803D2
:1016200020935703E0918803F0918903E41BF50BA5
:10163000F0937503E09374031092560310925503D0
:101640001092730310927203B0936C03A0936B0318
:10165000509389034093880380916E0390916F03A8
:10166000680F791F621B730B70936F0360936E0397
:1016700080918B0390918C03800F911F8E1B9F0B89
:1016800090938C0380938B030E944D0890938C035E
:1016900080938B0380916E0390916F030E944D089D
:1016A00090936F0380936E038091800390918103E8
:1016B000892B51F480918B0390918C034D96CB979D
:1016C00018F482E090E007C080918B0390918C0326
:1016D000909581959F4F0E94B708809163039091E8
:1016E0006403892B51F480916E0390916F034D96A2
:1016F000CB9718F482E090E004C080916E03909143
:101700006F030E94740810928D0303C081E08093E0
:101710008D03FF91EF91BF91AF919F918F917F9139
:101720006F915F914F913F912F911F910F910F906A
:101730000FBE0F901F9018951F920F920FB60F9229
:1017400011240F931F932F933F934F935F936F93A6
:101750007F938F939F93AF93BF93EF93FF9369B161
:1017600049B109E513E060724071C8010E94A00010
:1017700069B149B164704870C8014D960E94A000DB
:10178000FF91EF91BF91AF919F918F917F916F9159
:101790005F914F913F912F911F910F910F900FBE2D
:1017A0000F901F9018950E9498080E948F088AB188
:1017B000837C8AB9F894E8E6F0E0808184608083D5
:1017C0008CE380936D0078940E94510A08951F92D3
:1017D0000F920FB60F9211242F933F938F939F93E5
:1017E000AF93BF938091980390919903A0919A032E
:1017F000B0919B0330919C030196A11DB11D232F35
:101800002D5F2D3720F02D570196A11DB11D20937E
:101810009C038093980390939903A0939A03B093A9
:101820009B038091940390919503A0919603B091AE
:1018300097030196A11DB11D809394039093950386
:10184000A0939603B0939703BF91AF919F918F910F
:101850003F912F910F900FBE0F901F9018958FB74B
:10186000F894209198033091990340919A035091F4
:101870009B038FBFB901CA0108956FB7F89486B56D
:1018800090E0A0E0B0E0A89B08C00097A105B105DA
:1018900021F480E091E0A0E0B0E020919403309149
:1018A000950340919603509197036FBF542F432F98
:1018B000322F2227280F391F4A1F5B1F82E0220F79
:1018C000331F441F551F8A95D1F7B901CA010895E6
:1018D000EF92FF920F931F937B018C018FB7F894C7
:1018E000409198035091990360919A0370919B03E2
:1018F0008FBF2FB7F8948091980390919903A0918E
:101900009A03B0919B032FBF841B950BA60BB70BBB
:10191000E816F9060A071B0760F71F910F91FF9061
:10192000EF900895019759F0FC01EE0FFF1FEE0FA5
:10193000FF1F32978FB7F8943197F1F78FBF089553
:10194000789484B5826084BD84B5816084BD85B59A
:10195000826085BD85B5816085BDEEE6F0E0808161
:1019600081608083E1E8F0E0808182608083808113
:1019700081608083E0E8F0E0808181608083E1EB3A
:10198000F0E0808184608083E0EBF0E08081816022
:101990008083EAE7F0E080818460808380818260D8
:1019A00080838081816080838081806880831092C1
:1019B000C100089580933A0108958F7090913A0183
:1019C0009295990F990F907C982B90937C00809121
:1019D0007A00806480937A0080917A0086FDFCCF43
:1019E0002091780040917900942F80E030E0282BFE
:1019F000392BC90108951F93CF93DF93182FEB0163
:101A000061E00E94540DE12FF0E0E255FF4F849118
:101A1000833051F480918000806880938000D0935F
:101A20008900C09388003CC0843051F480918000CC
:101A3000806280938000D0938B00C0938A0030C076
:101A4000813039F4209729F184B5806884BDC7BD01
:101A500027C0823039F42097E1F084B5806284BDDC
:101A6000C8BD1EC0863041F48091B000806880936C
:101A7000B000C093B30014C0873041F48091B0002F
:101A800080628093B000C093B4000AC0C038D10512
:101A90001CF4812F60E002C0812F61E00E94740D70
:101AA000DF91CF911F910895282F30E0C90186560C
:101AB0009F4FFC0194912A573F4FF901849188234D
:101AC00091F0E82FF0E0EE0FFF1FE859FF4FA591CE
:101AD000B491662329F48C91909589238C93089571
:101AE0008C91892B8C930895482F50E0CA01825520
:101AF0009F4FFC012491CA0186569F4FFC0194918F
:101B00004A575F4FFA0134913323D1F1222331F147
:101B1000233021F4809180008F7705C0243031F488
:101B2000809180008F7D8093800018C0213019F44F
:101B300084B58F7704C0223021F484B58F7D84BDB5
:101B40000DC0263021F48091B0008F7705C027307A
:101B500029F48091B0008F7D8093B000E32FF0E0F6
:101B6000EE0FFF1FEE58FF4FA591B491662329F4A5
:101B70008C91909589238C9308958C91892B8C93CB
:101B80000895682F70E0CB0182559F4FFC0124918E
:101B9000CB0186569F4FFC0144916A577F4FFB0152
:101BA0009491992319F420E030E038C0222331F1D8
:101BB000233021F4809180008F7705C0243031F4E8
:101BC000809180008F7D8093800018C0213019F4AF
:101BD00084B58F7704C0223021F484B58F7D84BD15
:101BE0000DC0263021F48091B0008F7705C02730DA
:101BF00029F48091B0008F7D8093B000892F90E010
:101C0000880F991F84589F4FFC01A591B4918C9126
:101C100020E030E0842311F021E030E0C901089594
:101C2000DF92EF92FF920F931F93A82FB0E0CD01A8
:101C300086569F4FFC01D490AA57BF4FFD01849157
:101C4000662311F490E001C09D2D6FEFE62E6FEF3B
:101C5000F62E6FEF062F6FE0162FE222F3220423F9
:101C60001523682F70E0660F771F64587F4F20E0C0
:101C700030E040E050E0FB01A591B4910AC02E1580
:101C80003F054007510709F440C02F5F3F4F4F4FBA
:101C90005F4F8C918D21891791F30AC02E153F0556
:101CA0004007510791F12F5F3F4F4F4F5F4F03C0E8
:101CB000FB01A591B4918C918D21891779F720E0D2
:101CC00030E040E050E0FB01A591B49104C02F5FEB
:101CD0003F4F4F4F5F4F8C918D218917C1F3CA0140
:101CE000B9012AE030E040E050E00E947A1D9B01FB
:101CF000AC01205F3F4F4F4F5F4F84E056954795B3
:101D0000379527958A95D1F704C020E030E040E070
:101D100050E0B901CA011F910F91FF90EF90DF9041
:101D20000895BF92CF92DF92EF92FF920F931F938D
:101D3000CF93DF93E82EF62EB42EC0E0D0E0022F32
:101D400010E087E0C82ED12CBB2041F4B8010C2E46
:101D500002C0759567950A94E2F70AC0B6016C1B3C
:101D60007D0BC80102C0959587956A95E2F7BC0185
:101D700061708E2D0E94740D8F2D61E00E94740D94
:101D80008F2D60E00E94740D2196C830D105E1F6D8
:101D9000DF91CF911F910F91FF90EF90DF90CF9047
:101DA000BF900895EF92FF920F931F937B018C01D8
:101DB00020E030E040E05FE40E947E1288238CF057
:101DC000C801B70120E030E040E05FE40E944A1023
:101DD0000E943C139B01AC012050304040405048D1
:101DE00006C0C801B7010E943C139B01AC01B901B8
:101DF000CA011F910F91FF90EF900895A0E0B0E00D
:101E0000E4E0FFE00C94FD1DDC012B01FA019C9144
:101E1000923008F439C1EB018881823008F433C173
:101E2000943069F4843009F02FC111969C91119778
:101E30008981981709F428C1ABE3B1E025C184304A
:101E400009F421C18230A9F4923009F01DC19A0130
:101E5000AD0188E0EA010990AE01E90109929E0115
:101E60008150C1F7E201898111969C918923818378
:101E700008C1923009F407C112962D903C90139737
:101E8000EB018A819B811496AD90BD90CD90DC9042
:101E90001797EC80FD800E811F819101281B390B63
:101EA000B90137FF04C066277727621B730B6032C6
:101EB00071050CF061C0121613066CF5370148016C
:101EC000062E04C096948794779467940A94D2F768
:101ED00021E030E040E050E004C0220F331F441FF7
:101EE000551F6A95D2F721503040404050402E2176
:101EF0003F2140235123211531054105510521F092
:101F000021E030E040E050E079018A01E628F7283E
:101F1000082919293CC0232BD1F1260E371E350183
:101F20004601062E04C096948794779467940A9489
:101F3000D2F721E030E040E050E004C0220F331F30
:101F4000441F551F6A95D2F7215030404040504001
:101F50002A213B214C215D212115310541055105E7
:101F600021F021E030E040E050E059016A01A6286C
:101F7000B728C828D9280BC0821593052CF01C015E
:101F8000AA24BB24650103C0EE24FF248701119617
:101F90009C91D20111968C91981709F445C0992310
:101FA00039F0A80197012A193B094C095D0906C0BF
:101FB000A60195012E193F09400B510B57FD08C092
:101FC00011823382228224833583468357831DC046
:101FD00081E081833382228288279927DC01821B5A
:101FE000930BA40BB50B84839583A683B7830DC095
:101FF000220F331F441F551F248335834683578385
:1020000082819381019793838283248135814681E4
:102010005781DA01C9010197A109B1098F5F9F4F6B
:10202000AF4FBF4328F30BC0918333822282EA0C67
:10203000FB1C0C1D1D1DE482F5820683178383E0C3
:102040008083248135814681578157FF1AC0C90199
:10205000AA2797FDA095BA2F81709070A070B070DC
:102060005695479537952795822B932BA42BB52B07
:1020700084839583A683B78382819381019693831A
:102080008283DF0101C0D201CD01CDB7DEB7E2E12D
:102090000C94191EA0E2B0E0E0E5F0E10C94091EFA
:1020A00069837A838B839C832D833E834F835887F8
:1020B000E9E0EE2EF12CEC0EFD1ECE010196B701EB
:1020C0000E942D158E010F5E1F4FCE010596B8019F
:1020D0000E942D158A8991E089278A8BC701B80152
:1020E000AE01475E5F4F0E94FE0E0E945814A096FC
:1020F000E6E00C94251EA0E2B0E0E1E8F0E10C94EB
:10210000091E69837A838B839C832D833E834F834F
:102110005887F9E0EF2EF12CEC0EFD1ECE01019652
:10212000B7010E942D158E010F5E1F4FCE0105963F
:10213000B8010E942D15C701B801AE01475E5F4F7F
:102140000E94FE0E0E945814A096E6E00C94251EF4
:10215000A0E2B0E0EEEAF0E10C94FD1D69837A8321
:102160008B839C832D833E834F835887CE010196BA
:10217000BE01675F7F4F0E942D15CE010596BE01FF
:102180006F5E7F4F0E942D159985923088F0898966
:102190008230C8F0943019F4823051F404C0843095
:1021A00029F4923081F48BE391E0C6C0923049F477
:1021B00020E09A858A89981321E02A87CE01099622
:1021C000BBC0823049F420E09A858A89981321E0C7
:1021D0002A8BCE014196B0C02D843E844F8458880E
:1021E0006D887E888F88988CEE24FF248701AA242E
:1021F000BB24650140E050E060E070E0E0E0F0E02A
:10220000C10181709070892BE9F0E60CF71C081D64
:10221000191D9A01AB012A0D3B1D4C1D5D1D80E06F
:1022200090E0A0E0B0E0E614F7040805190520F4FA
:1022300081E090E0A0E0B0E0BA01A901480F591F89
:102240006A1F7B1FAA0CBB1CCC1CDD1C97FE08C0A0
:1022500081E090E0A0E0B0E0A82AB92ACA2ADB2AEF
:102260003196E032F10549F0660C771C881C991C08
:102270005694479437942794C3CFFA85EA892B89DB
:102280003C898B859C85280F391F2E5F3F4F17C0D7
:10229000CA0181709070892B61F016950795F794AB
:1022A000E79480E090E0A0E0B0E8E82AF92A0A2B61
:1022B0001B2B76956795579547952F5F3F4F77FD79
:1022C000E7CF0CC0440F551F661F771F17FD4160F5
:1022D000EE0CFF1C001F111F21503040403090E0D9
:1022E000590790E0690790E4790760F32B8F3C8FE2
:1022F000DB01CA018F779070A070B07080349105B7
:10230000A105B10561F447FD0AC0E114F10401051E
:10231000110529F0405C5F4F6F4F7F4F40781A8E58
:10232000FE1711F081E08A8F4D8F5E8F6F8F78A33B
:1023300083E0898FCE0149960E945814A096E2E16D
:102340000C94191EA8E1B0E0E8EAF1E10C94051E36
:1023500069837A838B839C832D833E834F83588745
:10236000B9E0EB2EF12CEC0EFD1ECE010196B7016B
:102370000E942D158E010F5E1F4FCE010596B801EC
:102380000E942D152985223008F47EC0398932300B
:1023900010F4B8017CC08A859A8989278A872430FD
:1023A00011F0223031F4231709F06EC06BE371E0B5
:1023B0006EC0343039F41D861E861F86188A1C862E
:1023C0001B8604C0323021F484E08987B7015FC0E6
:1023D0002B853C858B899C89281B390B3C872B8757
:1023E000ED84FE840F851889AD88BE88CF88D88C8F
:1023F000EA14FB040C051D0540F4EE0CFF1C001F45
:10240000111F215030403C872B8720E030E040E016
:1024100050E080E090E0A0E0B0E460E070E0EA141A
:10242000FB040C051D0540F0282B392B4A2B5B2B98
:10243000EA18FB080C091D09B695A795979587958D
:10244000EE0CFF1C001F111F6F5F7F4F6F31710576
:1024500031F7DA01C9018F779070A070B0708034C5
:102460009105A105B10561F427FD0AC0E114F1044D
:102470000105110529F0205C3F4F4F4F5F4F207839
:102480002D873E874F87588BBE01675F7F4FCB01FB
:102490000E9458146896EAE00C94211EA8E1B0E06E
:1024A000E4E5F2E10C94091E69837A838B839C83B3
:1024B0002D833E834F83588789E0E82EF12CEC0E64
:1024C000FD1ECE010196B7010E942D158E010F5EF3
:1024D0001F4FCE010596B8010E942D1589858230C7
:1024E00040F08989823028F0C701B8010E94A51503
:1024F00001C08FEF6896E6E00C94251EA8E1B0E0DD
:10250000E4E8F2E10C94091E69837A838B839C834F
:102510002D833E834F83588789E0E82EF12CEC0E03
:10252000FD1ECE010196B7010E942D158E010F5E92
:102530001F4FCE010596B8010E942D158985823066
:1025400040F08989823028F0C701B8010E94A515A2
:1025500001C08FEF6896E6E00C94251EA8E1B0E07C
:10256000E4EBF2E10C94091E69837A838B839C83EC
:102570002D833E834F83588789E0E82EF12CEC0EA3
:10258000FD1ECE010196B7010E942D158E010F5E32
:102590001F4FCE010596B8010E942D158985823006
:1025A00040F08989823028F0C701B8010E94A51542
:1025B00001C081E06896E6E00C94251EA8E0B0E03A
:1025C000E4EEF2E10C94061E9B01AC0183E08983EA
:1025D000DA01C9018827B7FD83959927AA27BB2768
:1025E000B82E211531054105510519F482E0898382
:1025F0003AC08823A9F0203080E0380780E04807FF
:1026000080E8580729F460E070E080E09FEC30C07B
:10261000EE24FF248701E21AF30A040B150B02C013
:1026200079018A018EE1C82ED12CDC82CB82ED8229
:10263000FE820F831887C801B7010E940914019711
:102640001816190684F4082E04C0EE0CFF1C001F97
:10265000111F0A94D2F7ED82FE820F831887C81AE1
:10266000D90ADC82CB82BA82CE0101960E9458142C
:102670002896E9E00C94221EACE0B0E0E2E4F3E13D
:102680000C940D1E69837A838B839C83CE01019603
:10269000BE016B5F7F4F0E942D158D81823061F1ED
:1026A000823050F1843021F48E81882351F12EC084
:1026B0002F81388537FD20C06E812F3131051CF008
:1026C0006623F9F023C08EE190E0821B930B2985ED
:1026D0003A854B855C8504C0569547953795279577
:1026E0008A95D2F76623B1F05095409530952195A3
:1026F0003F4F4F4F5F4F0EC020E030E040E050E0D2
:1027000009C02FEF3FEF4FEF5FE704C020E030E05C
:1027100040E050E8B901CA012C96E2E00C94291E71
:10272000A8E0B0E0E6E9F3E10C94051E7B018C0122
:10273000611571058105910519F482E0898360C0F6
:1027400083E089838EE1C82ED12CDC82CB82ED829E
:10275000FE820F831887C801B7010E940914FC018B
:102760003197F7FF3BC0222733272E1B3F0B570122
:102770006801022E04C0D694C794B794A7940A9413
:10278000D2F740E050E060E070E081E090E0A0E04F
:10279000B0E004C0880F991FAA1FBB1F2A95D2F76B
:1027A0000197A109B1098E219F21A023B123009790
:1027B000A105B10521F041E050E060E070E04A2958
:1027C0005B296C297D294D835E836F8378878EE139
:1027D00090E08E1B9F0B9C838B8312C0309781F0FF
:1027E0000E2E04C0EE0CFF1C001F111F0A94D2F71E
:1027F000ED82FE820F831887CE1ADF0ADC82CB823D
:102800001A82CE0101960E9458142896EAE00C9490
:10281000211EEF92FF920F931F937B018C0180E0AA
:10282000E81680E0F80681E0080780E0180788F4E1
:102830008FEFE816F1040105110531F028F088E06A
:1028400090E0A0E0B0E017C080E090E0A0E0B0E051
:1028500012C080E0E81680E0F80680E0080781E01A
:10286000180728F088E190E0A0E0B0E004C080E123
:1028700090E0A0E0B0E020E230E040E050E0281B33
:10288000390B4A0B5B0B04C016950795F794E79438
:102890008A95D2F7F701ED5BFE4F8081281B310945
:1028A00041095109C9011F910F91FF90EF900895BF
:1028B000DF92EF92FF920F931F93FC01E480F5806B
:1028C00006811781D1808081823048F480E090E0D9
:1028D000A0E1B0E0E82AF92A0A2B1B2BA5C084301E
:1028E00009F49FC0823021F4EE24FF24870105C043
:1028F000E114F1040105110519F4E0E0F0E096C0DF
:10290000628173819FEF623879070CF05BC022E827
:102910003FEF261B370B2A3131052CF020E030E049
:1029200040E050E02AC0B801A701022E04C076950D
:102930006795579547950A94D2F781E090E0A0E01B
:10294000B0E004C0880F991FAA1FBB1F2A95D2F7B9
:102950000197A109B1098E219F21A023B1230097DE
:10296000A105B10521F081E090E0A0E0B0E09A017E
:10297000AB01282B392B4A2B5B2BDA01C9018F774E
:102980009070A070B07080349105A105B10539F444
:1029900027FF09C0205C3F4F4F4F5F4F04C0215CB1
:1029A0003F4F4F4F5F4FE0E0F0E02030A0E03A07AC
:1029B000A0E04A07A0E45A0710F0E1E0F0E0790156
:1029C0008A0127C06038710564F5FB01E158FF4FAB
:1029D000D801C7018F779070A070B07080349105D6
:1029E000A105B10539F4E7FE0DC080E490E0A0E058
:1029F000B0E004C08FE390E0A0E0B0E0E80EF91E84
:102A00000A1F1B1F17FF05C016950795F794E7943B
:102A1000319687E016950795F794E7948A95D1F754
:102A200005C0EE24FF248701EFEFF0E06E2F6795DD
:102A300066276795902F9F77D794DD24D7948E2FA4
:102A40008695492F462B582F5D29B701CA011F9142
:102A50000F91FF90EF90DF900895FC01DB01408122
:102A600051812281622F6F7770E0221F2227221F5F
:102A70009381892F880F822B282F30E0991F992767
:102A8000991F11969C93119721153105A9F54115B0
:102A900051056105710511F482E037C082E89FEFAE
:102AA00013969C938E9312979A01AB0167E0220FC5
:102AB000331F441F551F6A95D1F783E08C930DC0D7
:102AC000220F331F441F551F12968D919C9113970F
:102AD000019713969C938E931297203080E03807CD
:102AE00080E0480780E4580758F314962D933D93EF
:102AF0004D935C93179708952F3F310579F4411555
:102B000051056105710519F484E08C93089564FF03
:102B100003C081E08C9312C01C9210C02F5730402C
:102B200013963C932E93129783E08C9387E0440F87
:102B3000551F661F771F8A95D1F7706414964D93C1
:102B40005D936D937C93179708951F93DC01FB01B0
:102B50009C91923008F447C08081823008F443C0D1
:102B6000943051F411961C91843099F58181682F2D
:102B700070E0611B71093FC0843021F0923031F464
:102B80008230B9F18181882389F12DC011961C9181
:102B900011978230F1F081811817D9F412962D9196
:102BA0003C911397828193818217930794F02817A1
:102BB0003907BCF014968D919D910D90BC91A02D7C
:102BC0002481358146815781281739074A075B07D9
:102BD00018F4112341F00AC082179307A407B50720
:102BE00040F4112319F061E070E005C06FEF7FEF52
:102BF00002C060E070E0CB011F910895A0E0B0E05A
:102C0000E4E0F6E10C94051EEC01A880B980CA80CE
:102C1000DB80A114B104C104D10441F484E2A82EE4
:102C200089EDB82E8BE5C82E87E0D82EC601B501F8
:102C30002DE133EF41E050E00E94CE1D27EA31E460
:102C400040E050E00E947A1D7B018C01C601B50175
:102C50002DE133EF41E050E00E94CE1DCA01B901E1
:102C60002CEE34EF4FEF5FEF0E947A1D6E0D7F1D4B
:102C7000801F911F97FF04C06150704080409048B2
:102C8000688379838A839B839B01AC015F77B90159
:102C9000CA01CDB7DEB7EAE00C94211E0E94FE15F2
:102CA000089583E492E00E94FE1508956093430224
:102CB00070934402809345029093460208950F93C7
:102CC0001F93CF93DF938C01EB01009731F46115D3
:102CD000710519F420E030E038C081E090E06EE04A
:102CE00070E00E944B1BFC019C01009771F180E891
:102CF0008383209771F0D387C28781E88383809193
:102D00009D0390919E03892B21F4F0939E03E09301
:102D10009D0301151105C9F0118700878381826029
:102D2000838380919F039091A003892B71F4F0938A
:102D3000A003E0939F038091A1039091A203892BAC
:102D400021F4F093A203E093A103C901DF91CF9195
:102D50001F910F910895A0E0B0E0E1EBF6E10C9433
:102D60000D1E9E01275F3F4F8D819E816F8178856B
:102D7000A9010E94D9162096E2E00C94291EAEE02B
:102D8000B0E0E5ECF6E10C940D1E85E08C838B89B8
:102D90009C899A8389839E01295E3F4FCE010196CB
:102DA0006D897E89A9010E943A1A2E96E2E00C9460
:102DB000291EABE0B0E0EFEDF6E10C94FD1D3C0107
:102DC0002B015A01FC0117821682838181FD03C009
:102DD0006FEF7FEFC6C19AE0892E1E010894211C77
:102DE000311CF3012381F20123FD859123FF8191A1
:102DF0002F01882309F4B2C1853239F423FD85916E
:102E000023FF81912F01853229F490E0B3010E94C4
:102E1000D61CE7CF982FFF24EE249924FFE1FF155D
:102E2000D0F09B3269F09C3228F4903259F0933202
:102E300091F40EC09D3249F0903369F441E024C012
:102E400052E0F52A84E0F82A28C098E0F92A25C043
:102E5000E0E1FE2A22C0F7FC29C0892F80538A3086
:102E600070F4F6FE05C0989C902C1124980E15C0A5
:102E7000E89CE02C1124E80EF0E2FF2A0EC09E32FE
:102E800029F4F6FC6BC140E4F42A07C09C3619F41F
:102E900050E8F52A02C0983649F4F20123FD9591D5
:102EA00023FF91912F01992309F0B8CF892F8554E1
:102EB000833018F08052833038F444E050E0A40EA0
:102EC000B51E5FE359830FC0933631F0933779F025
:102ED000933509F056C020C0F5018081898342E016
:102EE00050E0A40EB51E610101E010E012C0F50132
:102EF000C080D180F6FC03C06FEF7FEF02C0692D68
:102F000070E042E050E0A40EB51EC6010E94891C8C
:102F10008C015FE7F52214C0F501C080D180F6FC7A
:102F200003C06FEF7FEF02C0692D70E042E050E018
:102F3000A40EB51EC6010E94771C8C0150E8F52A2C
:102F4000F3FE07C01AC080E290E0B3010E94D61CD5
:102F5000EA948E2D90E008171907A8F30EC0F60129
:102F6000F7FC8591F7FE81916F0190E0B3010E941B
:102F7000D61CE110EA94015010400115110579F7B3
:102F8000EAC0943611F0993669F5F7FE08C0F501EC
:102F9000208131814281538184E090E00AC0F501B3
:102FA000808191819C01442737FD4095542F82E018
:102FB00090E0A80EB91E9FE6F92257FF09C0509570
:102FC0004095309521953F4F4F4F5F4FE0E8FE2AE7
:102FD000CA01B901A1012AE030E00E941C1DD82ECF
:102FE000D21840C0953729F41F2D1F7E2AE030E00B
:102FF0001DC01F2D197F9F3661F0903720F4983542
:1030000009F0ACC00FC0903739F0983709F0A6C06E
:1030100004C028E030E00AC0106114FD146020E113
:1030200030E004C014FD166020E132E017FF08C054
:10303000F501608171818281938144E050E008C094
:10304000F50180819181BC0180E090E042E050E098
:10305000A40EB51EA1010E941C1DD82ED2188FE708
:10306000F82EF122F6FE0BC05EEFF522D91438F4EB
:10307000F4FE07C0F2FC05C08FEEF82202C01D2D41
:1030800001C0192DF4FE0DC0FE01ED0DF11D808172
:10309000803319F499EEF92208C01F5FF2FE05C0D3
:1030A00003C08F2D867809F01F5F0F2DF3FC14C02D
:1030B000F0FE0FC01E1510F09D2C0BC09D2C9E0C19
:1030C000911A1E2D06C080E290E0B3010E94D61C2A
:1030D0001F5F1E15C0F304C01E1510F4E11A01C0D5
:1030E000EE2404FF0FC080E390E0B3010E94D61CE1
:1030F00002FF1DC001FD03C088E790E00EC088E517
:1031000090E00BC0802F867891F001FF02C08BE227
:1031100001C080E2F7FC8DE290E0B3010E94D61C72
:1031200006C080E390E0B3010E94D61C9A94D914A3
:10313000C0F3DA94F101ED0DF11D808190E0B3014F
:103140000E94D61CDD20A9F706C080E290E0B30102
:103150000E94D61CEA94EE20C1F743CEF3016681AB
:103160007781CB012B96E2E10C94191EFC0120FD26
:1031700008C023FD05C022FF02C073836283518310
:1031800040830895EF92FF920F931F9344FF02C074
:1031900033E011C046FF02C034E00DC0DB01FC018A
:1031A000AA0FBB1FEE1FFF1F1094D1F76A0F7B1FE2
:1031B0008E1F9F1F31E0660F771F881F991F3150A8
:1031C000D1F77B018C01E20EF11C011D111DA8013C
:1031D0009701B701CA011F910F91FF90EF900895D9
:1031E0000F931F93CF93DF938C01C8010E94941C0F
:1031F000EC0197FD08C00E943A1E892BB1F7CE0161
:10320000B8010E94021DCE01DF91CF911F910F9155
:103210000895A0E0B0E0EFE0F9E10C94051EEC01A8
:10322000C62E5A01122F0E94941CAC018B3219F049
:103230008D3251F41068CA9409F46DC0CE010E9419
:10324000941CAC0197FD67C06DEFD62ED1228D2D59
:10325000807301F54033F1F4CA9409F447C0CE01FC
:103260000E94941CAC0197FD41C082E0D82A4837E7
:1032700011F0483559F480E4D82ACA94B9F1CE0146
:103280000E94941CAC0199232CF430C0D6FC02C0DF
:1032900080E1D82AEE24FF248701242F20532830F0
:1032A00088F0D4FC09C02A3068F0D6FE05C02F7D16
:1032B000822F8151863028F0CA01BE010E94021D72
:1032C00012C02750C801B7014D2D0E94C2187B01C2
:1032D0008C0182E0D82ACA9461F0CE010E94941C2D
:1032E000AC0197FFDACFD1FC04C015C0EE24FF2457
:1032F0008701D7FE08C010950095F094E094E11C7A
:10330000F11C011D111DC501B801A7012D2D0E9441
:10331000B61881E001C080E0CDB7DEB7EAE00C94DA
:10332000211EA0E2B0E0E7E9F9E10C94011E6C0176
:10333000A62E8A017901FE01319680E2DF011D92FD
:103340008A95E9F770E030E060E040E050E04F013E
:10335000A1E0B0E0F6018381F70183FD259183FFB1
:1033600021917F01222309F47EC02E3519F44115E5
:10337000510569F1872F90E08417950744F42D35A6
:1033800051F12D3221F4332329F431E021C03323CC
:1033900009F4622F322F832F869586958695F40146
:1033A000E80FF11D832F87703D0102C0660C771C6A
:1033B0008A95E2F7208126292083361711F430E020
:1033C00007C0361710F43F5FE6CF3150E4CF71E00D
:1033D0004F5F5F4FBFCF332319F08E8180628E83A2
:1033E000772359F0FE0131969E012F5D3F4F80817A
:1033F00080958193E217F307D1F7BB24B3944E0174
:103400000894811C911CC6010E94941CAC0197FD7C
:1034100022C0869586958695F401E80FF11D80817E
:1034200090E09A012770307002C0959587952A9593
:10343000E2F780FD05C0CA01B6010E94021D0BC063
:103440000115110519F0D8014D938D01AA94BB24E3
:10345000AA20C9F602C0BB2031F40115110529F0DC
:10346000F801108202C0EE24FF24C701A096EEE00E
:103470000C941D1EA0E0B0E0E0E4FAE10C94011E03
:103480005C016B013A01FC01178216828824EAC0B4
:10349000812F90E00E943A1E892B21F0C5010E94E5
:1034A000F018E0C0153249F4F601F3FC6591F3FE23
:1034B00061916F01653269F415E2C5010E94941CA7
:1034C00097FDDCC0181709F4CDC0B5010E94021D9C
:1034D000DAC06A3219F0162F00E006C0F3FC15912D
:1034E000F3FE11916F0101E099240FC00260692D74
:1034F00070E080E090E040E20E94C218962EF60153
:10350000F3FC1591F3FE11916F01212F20532A3006
:1035100068F301FD03C099249A9403C0992009F42B
:10352000B2C0183621F01C3699F4F6010BC0F60132
:10353000F3FC6591F3FE6191683619F06F01162F67
:1035400007C008600460F3FC1591F3FE11916F0150
:10355000112309F498C082EC90E0612F70E00E9482
:103560006C1C892B09F48FC0802F00FF03C0EE2450
:10357000FF2407C0F301E080F18022E030E0620E1A
:10358000731E1E3651F4F5014681578160E070E0EC
:10359000C701202F0E94B61865C0133691F481FD33
:1035A00002C099249394C5010E94941C97FD66C0A3
:1035B000E114F10419F0F70181937F019A9499F7CE
:1035C0004FC01B3559F4C501692DA70196010E9412
:1035D00091196C01009709F043C03DC0C5010E94DC
:1035E000F01897FD4BC01F3659F1103728F41436E8
:1035F00029F1193639F527C0133719F0153711F5A8
:103600001DC0C5010E94941CEC0197FD11C00E94D1
:103610003A1E892B29F0CE01B5010E94021D08C077
:10362000E114F10419F0F701C1937F019A9449F76D
:10363000E114F104A9F0F701108212C0006203C086
:10364000006101C00064C501692DA701202F0E94FF
:103650000919882329F4F5018381807379F413C053
:1036600000FF8394F501F380F601F3FC1591F3FE5E
:1036700011916F01112309F00BCF05C0882019F4B7
:103680002FEF3FEF02C0282D30E0C901CDB7DEB7E4
:10369000EEE00C941D1E0F931F93CF93DF93689F52
:1036A0008001699F100D789F100D1124C8010E94A0
:1036B000671BEC01009729F060E070E0A8010E9410
:1036C000821CCE01DF91CF911F910F910895CF936E
:1036D000DF93BC018230910510F462E070E0A091AC
:1036E000A503B091A603ED01E0E0F0E040E050E07A
:1036F00021C0888199818617970769F48A819B8107
:10370000309719F09383828304C09093A60380932B
:10371000A503FE0134C06817790738F44115510537
:1037200019F08417950708F4AC01FE018A819B818A
:103730009C01E9012097E9F641155105A9F1CA015B
:10374000861B970B049708F4BA01E0E0F0E02AC06A
:103750008D919C91119784179507F9F4641775075B
:1037600081F412968D919C911397309719F0938361
:10377000828304C09093A6038093A503FD01329633
:103780004FC0CA01861B970BFD01E80FF91F61931B
:10379000719302978D939C9343C0FD018281938125
:1037A0009C01D9011097A1F68091A3039091A403E5
:1037B000892B41F48091490290914A029093A4038D
:1037C0008093A30340914B0250914C024115510547
:1037D00041F44DB75EB78091470290914802481B73
:1037E000590B2091A3033091A40324173507B0F49B
:1037F000CA01821B930B8617970780F0AB014E5FBF
:103800005F4F8417950750F0420F531F5093A40346
:103810004093A303F9016193719302C0E0E0F0E0EB
:10382000CF01DF91CF910895CF93DF93009709F4F3
:1038300050C0EC0122971B821A82A091A503B0917F
:10384000A603109709F140E050E0AC17BD0708F15E
:10385000BB83AA83FE0121913191E20FF31FAE17C2
:10386000BF0779F48D919C911197280F391F2E5F16
:103870003F4F3983288312968D919C9113979B8398
:103880008A834115510571F4D093A603C093A50313
:1038900020C012968D919C911397AD01009711F065
:1038A000DC01D3CFFA01D383C28321913191E20F9E
:1038B000F31FCE17DF0769F488819981280F391F1C
:1038C0002E5F3F4FFA01318320838A819B8193834E
:1038D0008283DF91CF910895FC010590061621F0B7
:1038E0000020D9F7C00108953197CF010895FC0158
:1038F0000590615070400110D8F7809590958E0F1B
:103900009F1F0895DC0101C06D9341505040E0F7C6
:103910000895FC016150704001900110D8F7809526
:1039200090958E0F9F1F0895CF93DF93EC014B81ED
:1039300040FF1AC046FF0AC04F7B4B838E819F8198
:1039400001969F838E838A81282F2BC042FF13C04C
:10395000E881F9818081282F332727FD30952115B3
:10396000310529F440624B832FEF3FEF1BC03196A6
:10397000F983E88311C0EA85FB85CE0109959C0196
:1039800097FF0AC09B812F5F3F4F11F080E201C07B
:1039900080E1892B8B83E8CF8E819F8101969F8365
:1039A0008E8330E0C901DF91CF9108950F931F936B
:1039B000CF93DF938C01EB018B8181FF1BC082FFD2
:1039C0000DC02E813F818C819D812817390764F4B9
:1039D000E881F9810193F983E88306C0E885F985D8
:1039E000802F0995892B31F48E819F8101969F83C9
:1039F0008E8302C00FEF1FEFC801DF91CF911F919F
:103A00000F9108959C01FB01838180FF11C086FD09
:103A10000FC09FEF2F3F390759F0228380648F7DBD
:103A200083838681978101979783868330E002C0E4
:103A30002FEF3FEFC9010895FA01AA27283051F16D
:103A4000203181F1E8946F936E7F6E5F7F4F8F4FCF
:103A50009F4FAF4FB1E03ED0B4E03CD0670F781F2E
:103A6000891F9A1FA11D680F791F8A1F911DA11D13
:103A70006A0F711D811D911DA11D20D009F468944C
:103A80003F912AE0269F11243019305D3193DEF6F4
:103A9000CF010895462F4770405D4193B3E00FD0AA
:103AA000C9F7F6CF462F4F70405D4A3318F0495D95
:103AB00031FD4052419302D0A9F7EACFB4E0A69578
:103AC0009795879577956795BA95C9F7009761059A
:103AD000710508959B01AC010A2E069457954795F0
:103AE00037952795BA95C9F7620F731F841F951FE5
:103AF000A01D0895629FD001739FF001829FE00D89
:103B0000F11D649FE00DF11D929FF00D839FF00D5C
:103B1000749FF00D659FF00D9927729FB00DE11D08
:103B2000F91F639FB00DE11DF91FBD01CF011124E5
:103B3000089597FB092E07260AD077FD04D049D0B7
:103B400006D000201AF4709561957F4F0895F6F71E
:103B5000909581959F4F0895A1E21A2EAA1BBB1B39
:103B6000FD010DC0AA1FBB1FEE1FFF1FA217B30749
:103B7000E407F50720F0A21BB30BE40BF50B661F5F
:103B8000771F881F991F1A9469F760957095809523
:103B900090959B01AC01BD01CF01089597FB092EC3
:103BA00005260ED057FD04D0D7DF0AD0001C38F40C
:103BB00050954095309521953F4F4F4F5F4F089559
:103BC000F6F790958095709561957F4F8F4F9F4F39
:103BD0000895AA1BBB1B51E107C0AA1FBB1FA61754
:103BE000B70710F0A61BB70B881F991F5A95A9F7A6
:103BF00080959095BC01CD0108952F923F924F92F0
:103C00005F926F927F928F929F92AF92BF92CF926C
:103C1000DF92EF92FF920F931F93CF93DF93CDB775
:103C2000DEB7CA1BDB0B0FB6F894DEBF0FBECDBFED
:103C300009942A88398848885F846E847D848C84BE
:103C40009B84AA84B984C884DF80EE80FD800C81C7
:103C50001B81AA81B981CE0FD11D0FB6F894DEBFAA
:103C60000FBECDBFED010895EE0FFF1F0590F4913B
:103C7000E02D0994911106C0803219F089508550C9
:103C8000D0F7089599278827089510E0C2EDD0E075
:103C900004C0FE010E94361E2296C43DD107C9F71A
:043CA000F894FFCFC6
:103CA40000000000BE020B0323032E0000000000EE
:103CB400EB060B03230325732025642025640025CC
:103CC400732025642025640A0020257300452025DF
:103CD400642025640A0043450A0001000000000036
:103CE40000000000010202030303030404040404AB
:103CF4000404040505050505050505050505050573
:103D04000505050606060606060606060606060652
:103D1400060606060606060606060606060606063F
:103D24000606060707070707070707070707070722
:103D3400070707070707070707070707070707070F
:103D440007070707070707070707070707070707FF
:103D540007070707070707070707070707070707EF
:103D640007070708080808080808080808080808D2
:103D740008080808080808080808080808080808BF
:103D840008080808080808080808080808080808AF
:103D9400080808080808080808080808080808089F
:103DA400080808080808080808080808080808088F
:103DB400080808080808080808080808080808087F
:103DC400080808080808080808080808080808086F
:103DD400080808080808080808080808080808085F
:0E3DE400080808010000002000A703000000EE
:00000001FF
